:020000040000FA
:06000000D9EF08F0120028
:06100000D9EF08F0120018
:0610080016EF08F01200D3
:061018001FEF08F01200BA
:02102A000000C4
:04102C00DACFE4FF34
:10103000E2CFDAFFE652E552E5CFDAFF1100D8CF72
:10104000E4FFE0CFE4FFE46EDACFE4FFE2CFDAFFC3
:10105000E652E552E5CFDAFFE550E5CFE0FFE5CF18
:10106000D8FF10007E6A7F6A9368EF0E946EB10E0F
:10107000B16E8B98900EE66E010EE66E14D8E552B6
:10108000E5528B882C0EE66E010EE66E0CD8E5520A
:10109000E552EFD71200FA0EB36E240EB26EA19293
:1010A000A1A2FED71200D9CFE6FFE1CFD9FF020EF1
:1010B000E126DE6ADD6ADECF00F0DDCF01F0FD0E55
:1010C000DBCF02F0FE0EDBCF03F00250005C0350DA
:1010D000015806E2E0DFDF2A010E01E3DB2AEBD74D
:1010E000020EE15C02E2E16AE552E16EE552E7CF11
:0410F000D9FF120012
:0C10F4002A0EF66E100EF76E000EF86E5D
:1011000000010900F550656F0900F550666F03E1B5
:10111000656701D03DD00900F550606F0900F550BA
:10112000616F0900F550626F09000900F550E96E22
:101130000900F550EA6E090009000900F550636FD7
:101140000900F550646F09000900F6CF67F0F7CF8A
:1011500068F0F8CF69F060C0F6FF61C0F7FF62C0C9
:10116000F8FF0001635302E1645307E00900F55002
:10117000EE6E6307F8E26407F9D767C0F6FF68C050
:10118000F7FF69C0F8FF00016507000E665BBFD777
:0211900012004B
:0E119200000EF36E00EE00F0030E01D8120006
:1011A000EA6002D0EE6AFCD7F350E9601200EE6A02
:0211B000FCD76A
:0E11B20011EE00F021EE00F0F86A059C7AECD8
:0E11C00008F0E7EC08F032EC08F0FBD7120064
:0211CE0012000D
:020000040030CA
:0100000000FF
:0100010032CC
:0100020001FC
:010003001EDE
:0100050000FA
:0100060001F8
:0100080003F4
:01000900C036
:01000A0003F2
:01000B00E014
:01000C0003F0
:01000D0040B2
:00000001FF
